{
  "contractName": "MyContract",
  "abi": [
    {
      "inputs": [],
      "stateMutability": "nonpayable",
      "type": "constructor"
    },
    {
      "anonymous": false,
      "inputs": [
        {
          "indexed": true,
          "internalType": "address",
          "name": "owner",
          "type": "address"
        },
        {
          "indexed": false,
          "internalType": "uint256",
          "name": "price",
          "type": "uint256"
        },
        {
          "indexed": false,
          "internalType": "string",
          "name": "addr",
          "type": "string"
        },
        {
          "indexed": false,
          "internalType": "uint256",
          "name": "landArea",
          "type": "uint256"
        },
        {
          "indexed": false,
          "internalType": "uint256",
          "name": "numOfBedrooms",
          "type": "uint256"
        },
        {
          "indexed": false,
          "internalType": "uint256",
          "name": "numOfBathrooms",
          "type": "uint256"
        }
      ],
      "name": "PropertyAdded",
      "type": "event"
    },
    {
      "inputs": [],
      "name": "addr",
      "outputs": [
        {
          "internalType": "string",
          "name": "",
          "type": "string"
        }
      ],
      "stateMutability": "view",
      "type": "function",
      "constant": true
    },
    {
      "inputs": [],
      "name": "buyer",
      "outputs": [
        {
          "internalType": "address payable",
          "name": "",
          "type": "address"
        }
      ],
      "stateMutability": "view",
      "type": "function",
      "constant": true
    },
    {
      "inputs": [],
      "name": "landArea",
      "outputs": [
        {
          "internalType": "uint256",
          "name": "",
          "type": "uint256"
        }
      ],
      "stateMutability": "view",
      "type": "function",
      "constant": true
    },
    {
      "inputs": [],
      "name": "numOfBathrooms",
      "outputs": [
        {
          "internalType": "uint256",
          "name": "",
          "type": "uint256"
        }
      ],
      "stateMutability": "view",
      "type": "function",
      "constant": true
    },
    {
      "inputs": [],
      "name": "numOfBedrooms",
      "outputs": [
        {
          "internalType": "uint256",
          "name": "",
          "type": "uint256"
        }
      ],
      "stateMutability": "view",
      "type": "function",
      "constant": true
    },
    {
      "inputs": [],
      "name": "owner",
      "outputs": [
        {
          "internalType": "address",
          "name": "",
          "type": "address"
        }
      ],
      "stateMutability": "view",
      "type": "function",
      "constant": true
    },
    {
      "inputs": [],
      "name": "price",
      "outputs": [
        {
          "internalType": "uint256",
          "name": "",
          "type": "uint256"
        }
      ],
      "stateMutability": "view",
      "type": "function",
      "constant": true
    },
    {
      "inputs": [
        {
          "internalType": "address",
          "name": "",
          "type": "address"
        },
        {
          "internalType": "uint256",
          "name": "",
          "type": "uint256"
        }
      ],
      "name": "propertiesByOwner",
      "outputs": [
        {
          "internalType": "address",
          "name": "owner",
          "type": "address"
        },
        {
          "internalType": "uint256",
          "name": "price",
          "type": "uint256"
        },
        {
          "internalType": "string",
          "name": "addr",
          "type": "string"
        },
        {
          "internalType": "uint256",
          "name": "landArea",
          "type": "uint256"
        },
        {
          "internalType": "uint256",
          "name": "numOfBedrooms",
          "type": "uint256"
        },
        {
          "internalType": "uint256",
          "name": "numOfBathrooms",
          "type": "uint256"
        }
      ],
      "stateMutability": "view",
      "type": "function",
      "constant": true
    },
    {
      "inputs": [],
      "name": "seller",
      "outputs": [
        {
          "internalType": "address payable",
          "name": "",
          "type": "address"
        }
      ],
      "stateMutability": "view",
      "type": "function",
      "constant": true
    },
    {
      "inputs": [
        {
          "internalType": "address",
          "name": "Owner",
          "type": "address"
        },
        {
          "internalType": "uint256",
          "name": "Price",
          "type": "uint256"
        },
        {
          "internalType": "string",
          "name": "Addr",
          "type": "string"
        },
        {
          "internalType": "uint256",
          "name": "Area",
          "type": "uint256"
        },
        {
          "internalType": "uint256",
          "name": "Bedrooms",
          "type": "uint256"
        },
        {
          "internalType": "uint256",
          "name": "Bathrooms",
          "type": "uint256"
        }
      ],
      "name": "buyRealEstate",
      "outputs": [],
      "stateMutability": "payable",
      "type": "function",
      "payable": true
    },
    {
      "inputs": [
        {
          "internalType": "address",
          "name": "newOwner",
          "type": "address"
        }
      ],
      "name": "transferOwnership",
      "outputs": [],
      "stateMutability": "nonpayable",
      "type": "function"
    },
    {
      "inputs": [
        {
          "internalType": "address",
          "name": "_owner",
          "type": "address"
        }
      ],
      "name": "getPropertiesByOwner",
      "outputs": [
        {
          "components": [
            {
              "internalType": "address",
              "name": "owner",
              "type": "address"
            },
            {
              "internalType": "uint256",
              "name": "price",
              "type": "uint256"
            },
            {
              "internalType": "string",
              "name": "addr",
              "type": "string"
            },
            {
              "internalType": "uint256",
              "name": "landArea",
              "type": "uint256"
            },
            {
              "internalType": "uint256",
              "name": "numOfBedrooms",
              "type": "uint256"
            },
            {
              "internalType": "uint256",
              "name": "numOfBathrooms",
              "type": "uint256"
            }
          ],
          "internalType": "struct MyContract.Property[]",
          "name": "",
          "type": "tuple[]"
        }
      ],
      "stateMutability": "view",
      "type": "function",
      "constant": true
    },
    {
      "inputs": [],
      "name": "getCurrentBlockNumber",
      "outputs": [
        {
          "internalType": "bytes32",
          "name": "",
          "type": "bytes32"
        }
      ],
      "stateMutability": "view",
      "type": "function",
      "constant": true
    }
  ],
  "bytecode": "0x60806040523480156200001157600080fd5b50336000806101000a81548173ffffffffffffffffffffffffffffffffffffffff021916908373ffffffffffffffffffffffffffffffffffffffff16021790555060008054906101000a900473ffffffffffffffffffffffffffffffffffffffff16600260006101000a81548173ffffffffffffffffffffffffffffffffffffffff021916908373ffffffffffffffffffffffffffffffffffffffff160217905550670de0b6b3a764000060038190555060086000600260009054906101000a900473ffffffffffffffffffffffffffffffffffffffff1673ffffffffffffffffffffffffffffffffffffffff1673ffffffffffffffffffffffffffffffffffffffff1681526020019081526020016000206040518060c00160405280600260009054906101000a900473ffffffffffffffffffffffffffffffffffffffff1673ffffffffffffffffffffffffffffffffffffffff16815260200160035481526020016004805462000183906200038c565b80601f0160208091040260200160405190810160405280929190818152602001828054620001b1906200038c565b8015620002025780601f10620001d65761010080835404028352916020019162000202565b820191906000526020600020905b815481529060010190602001808311620001e457829003601f168201915b5050505050815260200160055481526020016006548152602001600754815250908060018154018082558091505060019003906000526020600020906006020160009091909190915060008201518160000160006101000a81548173ffffffffffffffffffffffffffffffffffffffff021916908373ffffffffffffffffffffffffffffffffffffffff160217905550602082015181600101556040820151816002019081620002b39190620005d7565b50606082015181600301556080820151816004015560a082015181600501555050600260009054906101000a900473ffffffffffffffffffffffffffffffffffffffff1673ffffffffffffffffffffffffffffffffffffffff167f7ac1ebda1a24e139f632bea7068e55966aef6a94251d170f6e1e4d7cea1a2f6860035460046005546006546007546040516200034f95949392919062000770565b60405180910390a2620007d4565b7f4e487b7100000000000000000000000000000000000000000000000000000000600052602260045260246000fd5b60006002820490506001821680620003a557607f821691505b602082108103620003bb57620003ba6200035d565b5b50919050565b600081519050919050565b7f4e487b7100000000000000000000000000000000000000000000000000000000600052604160045260246000fd5b60008190508160005260206000209050919050565b60006020601f8301049050919050565b600082821b905092915050565b6000600883026200045f7fffffffffffffffffffffffffffffffffffffffffffffffffffffffffffffffff8262000420565b6200046b868362000420565b95508019841693508086168417925050509392505050565b6000819050919050565b6000819050919050565b6000620004b8620004b2620004ac8462000483565b6200048d565b62000483565b9050919050565b6000819050919050565b620004d48362000497565b620004ec620004e382620004bf565b8484546200042d565b825550505050565b600090565b62000503620004f4565b62000510818484620004c9565b505050565b5b8181101562000538576200052c600082620004f9565b60018101905062000516565b5050565b601f82111562000587576200055181620003fb565b6200055c8462000410565b810160208510156200056c578190505b620005846200057b8562000410565b83018262000515565b50505b505050565b600082821c905092915050565b6000620005ac600019846008026200058c565b1980831691505092915050565b6000620005c7838362000599565b9150826002028217905092915050565b620005e282620003c1565b67ffffffffffffffff811115620005fe57620005fd620003cc565b5b6200060a82546200038c565b620006178282856200053c565b600060209050601f8311600181146200064f57600084156200063a578287015190505b620006468582620005b9565b865550620006b6565b601f1984166200065f86620003fb565b60005b82811015620006895784890151825560018201915060208501945060208101905062000662565b86831015620006a95784890151620006a5601f89168262000599565b8355505b6001600288020188555050505b505050505050565b620006c98162000483565b82525050565b600082825260208201905092915050565b60008154620006ef816200038c565b620006fb8186620006cf565b94506001821660008114620007195760018114620007305762000767565b60ff19831686528115156020028601935062000767565b6200073b85620003fb565b60005b838110156200075f578154818901526001820191506020810190506200073e565b808801955050505b50505092915050565b600060a082019050620007876000830188620006be565b81810360208301526200079b8187620006e0565b9050620007ac6040830186620006be565b620007bb6060830185620006be565b620007ca6080830184620006be565b9695505050505050565b61168480620007e46000396000f3fe6080604052600436106100c25760003560e01c80636fd902e11161007f5780638da5cb5b116100595780638da5cb5b146102525780639fcb27481461027d578063a035b1fe146102ba578063f2fde38b146102e5576100c2565b80636fd902e1146101d15780637150d8ae146101fc578063767800de14610227576100c2565b806305dfc1d5146100c757806308551a53146101095780632464146814610134578063252e6c051461015f57806364ff1ef21461018a5780636b33228d146101a6575b600080fd5b3480156100d357600080fd5b506100ee60048036038101906100e99190610b4b565b61030e565b60405161010096959493929190610c39565b60405180910390f35b34801561011557600080fd5b5061011e61040f565b60405161012b9190610cc2565b60405180910390f35b34801561014057600080fd5b50610149610433565b6040516101569190610cdd565b60405180910390f35b34801561016b57600080fd5b50610174610439565b6040516101819190610cdd565b60405180910390f35b6101a4600480360381019061019f9190610e2d565b61043f565b005b3480156101b257600080fd5b506101bb6106de565b6040516101c89190610cdd565b60405180910390f35b3480156101dd57600080fd5b506101e66106e4565b6040516101f39190610eef565b60405180910390f35b34801561020857600080fd5b50610211610741565b60405161021e9190610cc2565b60405180910390f35b34801561023357600080fd5b5061023c610767565b6040516102499190610f0a565b60405180910390f35b34801561025e57600080fd5b506102676107f5565b6040516102749190610f2c565b60405180910390f35b34801561028957600080fd5b506102a4600480360381019061029f9190610f47565b61081b565b6040516102b19190611127565b60405180910390f35b3480156102c657600080fd5b506102cf6109c9565b6040516102dc9190610cdd565b60405180910390f35b3480156102f157600080fd5b5061030c60048036038101906103079190610f47565b6109cf565b005b6008602052816000526040600020818154811061032a57600080fd5b9060005260206000209060060201600091509150508060000160009054906101000a900473ffffffffffffffffffffffffffffffffffffffff169080600101549080600201805461037a90611178565b80601f01602080910402602001604051908101604052809291908181526020018280546103a690611178565b80156103f35780601f106103c8576101008083540402835291602001916103f3565b820191906000526020600020905b8154815290600101906020018083116103d657829003601f168201915b5050505050908060030154908060040154908060050154905086565b60008054906101000a900473ffffffffffffffffffffffffffffffffffffffff1681565b60075481565b60065481565b843414610481576040517f08c379a0000000000000000000000000000000000000000000000000000000008152600401610478906111f5565b60405180910390fd5b33600160006101000a81548173ffffffffffffffffffffffffffffffffffffffff021916908373ffffffffffffffffffffffffffffffffffffffff16021790555060008054906101000a900473ffffffffffffffffffffffffffffffffffffffff1673ffffffffffffffffffffffffffffffffffffffff166108fc869081150290604051600060405180830381858888f19350505050158015610528573d6000803e3d6000fd5b50600160009054906101000a900473ffffffffffffffffffffffffffffffffffffffff169550600860008773ffffffffffffffffffffffffffffffffffffffff1673ffffffffffffffffffffffffffffffffffffffff1681526020019081526020016000206040518060c001604052808873ffffffffffffffffffffffffffffffffffffffff16815260200187815260200186815260200185815260200184815260200183815250908060018154018082558091505060019003906000526020600020906006020160009091909190915060008201518160000160006101000a81548173ffffffffffffffffffffffffffffffffffffffff021916908373ffffffffffffffffffffffffffffffffffffffff16021790555060208201518160010155604082015181600201908161065f91906113c1565b50606082015181600301556080820151816004015560a0820151816005015550508573ffffffffffffffffffffffffffffffffffffffff167f7ac1ebda1a24e139f632bea7068e55966aef6a94251d170f6e1e4d7cea1a2f6886868686866040516106ce959493929190611493565b60405180910390a2505050505050565b60055481565b6000804390506000811161072d576040517f08c379a000000000000000000000000000000000000000000000000000000000815260040161072490611539565b60405180910390fd5b60018161073a9190611588565b4091505090565b600160009054906101000a900473ffffffffffffffffffffffffffffffffffffffff1681565b6004805461077490611178565b80601f01602080910402602001604051908101604052809291908181526020018280546107a090611178565b80156107ed5780601f106107c2576101008083540402835291602001916107ed565b820191906000526020600020905b8154815290600101906020018083116107d057829003601f168201915b505050505081565b600260009054906101000a900473ffffffffffffffffffffffffffffffffffffffff1681565b6060600860008373ffffffffffffffffffffffffffffffffffffffff1673ffffffffffffffffffffffffffffffffffffffff168152602001908152602001600020805480602002602001604051908101604052809291908181526020016000905b828210156109be57838290600052602060002090600602016040518060c00160405290816000820160009054906101000a900473ffffffffffffffffffffffffffffffffffffffff1673ffffffffffffffffffffffffffffffffffffffff1673ffffffffffffffffffffffffffffffffffffffff1681526020016001820154815260200160028201805461090f90611178565b80601f016020809104026020016040519081016040528092919081815260200182805461093b90611178565b80156109885780601f1061095d57610100808354040283529160200191610988565b820191906000526020600020905b81548152906001019060200180831161096b57829003601f168201915b5050505050815260200160038201548152602001600482015481526020016005820154815250508152602001906001019061087c565b505050509050919050565b60035481565b600260009054906101000a900473ffffffffffffffffffffffffffffffffffffffff1673ffffffffffffffffffffffffffffffffffffffff163373ffffffffffffffffffffffffffffffffffffffff1614610a5f576040517f08c379a0000000000000000000000000000000000000000000000000000000008152600401610a569061162e565b60405180910390fd5b80600260006101000a81548173ffffffffffffffffffffffffffffffffffffffff021916908373ffffffffffffffffffffffffffffffffffffffff16021790555050565b6000604051905090565b600080fd5b600080fd5b600073ffffffffffffffffffffffffffffffffffffffff82169050919050565b6000610ae282610ab7565b9050919050565b610af281610ad7565b8114610afd57600080fd5b50565b600081359050610b0f81610ae9565b92915050565b6000819050919050565b610b2881610b15565b8114610b3357600080fd5b50565b600081359050610b4581610b1f565b92915050565b60008060408385031215610b6257610b61610aad565b5b6000610b7085828601610b00565b9250506020610b8185828601610b36565b9150509250929050565b610b9481610ad7565b82525050565b610ba381610b15565b82525050565b600081519050919050565b600082825260208201905092915050565b60005b83811015610be3578082015181840152602081019050610bc8565b60008484015250505050565b6000601f19601f8301169050919050565b6000610c0b82610ba9565b610c158185610bb4565b9350610c25818560208601610bc5565b610c2e81610bef565b840191505092915050565b600060c082019050610c4e6000830189610b8b565b610c5b6020830188610b9a565b8181036040830152610c6d8187610c00565b9050610c7c6060830186610b9a565b610c896080830185610b9a565b610c9660a0830184610b9a565b979650505050505050565b6000610cac82610ab7565b9050919050565b610cbc81610ca1565b82525050565b6000602082019050610cd76000830184610cb3565b92915050565b6000602082019050610cf26000830184610b9a565b92915050565b600080fd5b600080fd5b7f4e487b7100000000000000000000000000000000000000000000000000000000600052604160045260246000fd5b610d3a82610bef565b810181811067ffffffffffffffff82111715610d5957610d58610d02565b5b80604052505050565b6000610d6c610aa3565b9050610d788282610d31565b919050565b600067ffffffffffffffff821115610d9857610d97610d02565b5b610da182610bef565b9050602081019050919050565b82818337600083830152505050565b6000610dd0610dcb84610d7d565b610d62565b905082815260208101848484011115610dec57610deb610cfd565b5b610df7848285610dae565b509392505050565b600082601f830112610e1457610e13610cf8565b5b8135610e24848260208601610dbd565b91505092915050565b60008060008060008060c08789031215610e4a57610e49610aad565b5b6000610e5889828a01610b00565b9650506020610e6989828a01610b36565b955050604087013567ffffffffffffffff811115610e8a57610e89610ab2565b5b610e9689828a01610dff565b9450506060610ea789828a01610b36565b9350506080610eb889828a01610b36565b92505060a0610ec989828a01610b36565b9150509295509295509295565b6000819050919050565b610ee981610ed6565b82525050565b6000602082019050610f046000830184610ee0565b92915050565b60006020820190508181036000830152610f248184610c00565b905092915050565b6000602082019050610f416000830184610b8b565b92915050565b600060208284031215610f5d57610f5c610aad565b5b6000610f6b84828501610b00565b91505092915050565b600081519050919050565b600082825260208201905092915050565b6000819050602082019050919050565b610fa981610ad7565b82525050565b610fb881610b15565b82525050565b600082825260208201905092915050565b6000610fda82610ba9565b610fe48185610fbe565b9350610ff4818560208601610bc5565b610ffd81610bef565b840191505092915050565b600060c0830160008301516110206000860182610fa0565b5060208301516110336020860182610faf565b506040830151848203604086015261104b8282610fcf565b91505060608301516110606060860182610faf565b5060808301516110736080860182610faf565b5060a083015161108660a0860182610faf565b508091505092915050565b600061109d8383611008565b905092915050565b6000602082019050919050565b60006110bd82610f74565b6110c78185610f7f565b9350836020820285016110d985610f90565b8060005b8581101561111557848403895281516110f68582611091565b9450611101836110a5565b925060208a019950506001810190506110dd565b50829750879550505050505092915050565b6000602082019050818103600083015261114181846110b2565b905092915050565b7f4e487b7100000000000000000000000000000000000000000000000000000000600052602260045260246000fd5b6000600282049050600182168061119057607f821691505b6020821081036111a3576111a2611149565b5b50919050565b7f496e636f7272656374207061796d656e7420616d6f756e740000000000000000600082015250565b60006111df601883610bb4565b91506111ea826111a9565b602082019050919050565b6000602082019050818103600083015261120e816111d2565b9050919050565b60008190508160005260206000209050919050565b60006020601f8301049050919050565b600082821b905092915050565b6000600883026112777fffffffffffffffffffffffffffffffffffffffffffffffffffffffffffffffff8261123a565b611281868361123a565b95508019841693508086168417925050509392505050565b6000819050919050565b60006112be6112b96112b484610b15565b611299565b610b15565b9050919050565b6000819050919050565b6112d8836112a3565b6112ec6112e4826112c5565b848454611247565b825550505050565b600090565b6113016112f4565b61130c8184846112cf565b505050565b5b81811015611330576113256000826112f9565b600181019050611312565b5050565b601f8211156113755761134681611215565b61134f8461122a565b8101602085101561135e578190505b61137261136a8561122a565b830182611311565b50505b505050565b600082821c905092915050565b60006113986000198460080261137a565b1980831691505092915050565b60006113b18383611387565b9150826002028217905092915050565b6113ca82610ba9565b67ffffffffffffffff8111156113e3576113e2610d02565b5b6113ed8254611178565b6113f8828285611334565b600060209050601f83116001811461142b5760008415611419578287015190505b61142385826113a5565b86555061148b565b601f19841661143986611215565b60005b828110156114615784890151825560018201915060208501945060208101905061143c565b8683101561147e578489015161147a601f891682611387565b8355505b6001600288020188555050505b505050505050565b600060a0820190506114a86000830188610b9a565b81810360208301526114ba8187610c00565b90506114c96040830186610b9a565b6114d66060830185610b9a565b6114e36080830184610b9a565b9695505050505050565b7f43616e6e6f74206765742068617368206f662067656e6573697320626c6f636b600082015250565b6000611523602083610bb4565b915061152e826114ed565b602082019050919050565b6000602082019050818103600083015261155281611516565b9050919050565b7f4e487b7100000000000000000000000000000000000000000000000000000000600052601160045260246000fd5b600061159382610b15565b915061159e83610b15565b92508282039050818111156115b6576115b5611559565b5b92915050565b7f4f6e6c7920746865206f776e65722063616e207472616e73666572206f776e6560008201527f7273686970000000000000000000000000000000000000000000000000000000602082015250565b6000611618602583610bb4565b9150611623826115bc565b604082019050919050565b600060208201905081810360008301526116478161160b565b905091905056fea26469706673582212205b994aa90d1ea26fb56c77c34bab4ab1c63317b0f2ebe46e9b49077cd452ea9264736f6c63430008130033",
  "immutableReferences": {},
  "source": "// SPDX-License-Identifier: MIT\npragma solidity >=0.4.22 <0.9.0;\n\ncontract MyContract {\n\n    address payable public seller;\n    address payable public buyer;\n    address public owner;\n\n    uint256 public price;\n    string public addr;\n    uint public landArea;\n    uint public numOfBedrooms;\n    uint public numOfBathrooms;\n\n    struct Property {\n        address owner;\n        uint256 price;\n        string addr;\n        uint landArea;\n        uint numOfBedrooms;\n        uint numOfBathrooms;\n    }\n\n    mapping (address => Property[]) public propertiesByOwner;\n\n    event PropertyAdded(address indexed owner, uint256 price, string addr, uint landArea, uint numOfBedrooms, uint numOfBathrooms);\n\n    constructor() {\n\n        seller = payable(msg.sender);\n        owner = seller;\n        price = 1 ether;\n\n        propertiesByOwner[owner].push(Property(owner, price, addr, landArea, numOfBedrooms, numOfBathrooms));\n\n        emit PropertyAdded(owner, price, addr, landArea, numOfBedrooms, numOfBathrooms);\n    }\n\n    function buyRealEstate(address Owner, uint256 Price, string memory Addr, uint Area, uint Bedrooms, uint Bathrooms) external payable {\n        require(msg.value == Price, \"Incorrect payment amount\");\n        buyer = payable(msg.sender);\n        seller.transfer(Price);\n        Owner = buyer;\n\n        propertiesByOwner[Owner].push(Property(Owner, Price, Addr, Area, Bedrooms, Bathrooms));\n\n        emit PropertyAdded(Owner, Price, Addr, Area, Bedrooms, Bathrooms);\n    }\n\n    function transferOwnership(address newOwner) public {\n        require(msg.sender == owner, \"Only the owner can transfer ownership\");\n        owner = newOwner;\n    }\n\n    function getPropertiesByOwner(address _owner) public view returns (Property[] memory) {\n        return propertiesByOwner[_owner];\n    }\n\n    function getCurrentBlockNumber() external view returns (bytes32) {\n        uint256 blockNumber =  block.number;\n        require(blockNumber > 0, \"Cannot get hash of genesis block\");\n        return blockhash(blockNumber - 1);   \n    }\n    \n}",
  "sourcePath": "C:\\Users\\ASUS\\Downloads\\Real-estate-website-master\\MarketStoreContract\\contracts\\MyContract.sol",
  "compiler": {
    "name": "solc",
    "version": "0.8.19+commit.7dd6d404.Emscripten.clang"
  },
  "schemaVersion": "3.4.14",
  "updatedAt": "2023-06-26T10:28:10.126Z",
  "networkType": "ethereum",
  "devdoc": {
    "kind": "dev",
    "methods": {},
    "version": 1
  },
  "userdoc": {
    "kind": "user",
    "methods": {},
    "version": 1
  }
}